:020000040000fa
:080000000001040000000000f3
:020000040000fa
:100200006f9b2000809f20000001880000000000fc
:10021000050007000c000700f204020000000000c7
:100220000040da000000fe004440a9000000200069
:100230000000e0000300320000002000a001880060
:100240004440a80000000600a0cf200001002000cc
:100250001600370062004000e080480091018800ed
:100260009001ba0062004000e080480091018800df
:100270009002ba0062004000e08048000002eb00fb
:100280006028e10005003a008301e900070033001f
:10029000038009000059eb00040037006128e100e9
:1002a000010032000082eb00050007009101880088
:1002b0001001ba000200e000e6ff3a00000005006d
:1002c000910188008002780062004000e0804800d0
:1002d0003559ba008301e900080032002559ba00f7
:1002e0008301e900050032000400e000f4ff320061
:1002f00015d9ba008301e900f1ff3a0000000600b9
:100300006022b800060220000000d0008180d200e8
:100310000482d2008582d2000000a00002025200b6
:1003200083825a0003003b000202420083824a009b
:100330000000a1000603e900f3ff3a0000000600f8
:100340000000fa0021e2a9002142a8002062a900d1
:10035000012220009140780090cfb30000c06000df
:1003600020e2b7002002a900810a20009140780015
:10037000f0c8b30000c0600001c4b30001407000c9
:10038000a8e0b7008520a90023a2a90023e2a900c4
:100390002362a90022c2bf00f043b20022e2b700ec
:1003a0002342a800000120004011880021e2a8009b
:1003b0009520a8002342a8000080fa000000060053
:1003c0000200fa00000f780023c2bf006240600004
:1003d0000004e000fcff3a001e00780020118800b5
:1003e00023c2bf00614060000004e000fcff320057
:1003f0000080fa00000006000000fa00804d800036
:100400000000e000fdff32000000eb00804d88009e
:10041000301180000080fa0000000600801f780084
:100420003400f80000c0b300a00188000000fa000a
:1004300010002000804d88008520a9000080fa006f
:100440003400f9004f007800004006000200fa0076
:1004500030118000004f780030118000004f78008c
:1004600030118000004f78000080fa000000060084
:100470000000fa00013020009140780080cfb300e6
:1004800000c060000014a00000e3b70000a3a900b2
:1004900000c3a9000103a9000143a90001a3a90009
:1004a00000fc2f00101888000000eb0030188800b6
:1004b000b13020009140780000ceb30000c0600051
:1004c0000004a0000be3b7000ba3a9000bc3a90015
:1004d0000be3a900a13020009140780000ceb300ca
:1004e00000c060000004a0000ae3b7000aa3a9004e
:1004f0000ac3a9000ae3a90001e3a8000080fa00ea
:10050000000006000000fa00c9a4a800c8a4a900c1
:10051000c804a800310b200091407800f0c8b30057
:1005200000c0600001c3b30001407000b3e0b70039
:1005300087e0a9000080fa00000006000000fa0031
:10054000004020006008880000202000000c880087
:10055000411820009140780080cfb30000c06000b7
:100560006040b30084e1b7008461a9001021a900b4
:100570000111200091407800f0ccb30000c0600071
:1005800010e1b70011e1a8000080fa0000000600a9
:100590000000fa00004020006008880000202000d1
:1005a000300c8800a11820009140780080cfb30063
:1005b00000c060006040b3008ae1b7008a61a90012
:1005c0001021a9000111200091407800f0ccb30067
:1005d00000c0600010e1b70011e1a8000080fa003f
:1005e000000006000800fa00200798003107980074
:1005f000d802a900d822a900d842a900d862a9002f
:1006000000082000000f7800dc42a800dc62a8008f
:10061000dc02a9003e009000e10f500002003a0009
:10062000dc42a90001003700dc62a9000000eb00f9
:1006300010079800190037001e009000e10f5000cd
:100640000a003a00dc22a80000142000010020006b
:10065000dd040700dc02a8000014200001002000d7
:10066000d9040700dc02a90009003700dc22a90038
:100670000014200001002000d3040700dc02a800c1
:100680000014200001002000cf040700dc02a900b4
:100690001e0090000000e800100798001e00900067
:1006a000e70f5000e4ff34000000eb001007980053
:1006b0001d0037002e0090001e0060000000e000ca
:1006c0000a003400dc22a8000014200001002000f1
:1006d000bd040700dc02a800001420000100200077
:1006e000b9040700dc02a90009003700dc22a900d8
:1006f0000014200001002000b3040700dc02a80061
:100700000014200001002000af040700dc02a90053
:100710001e0078000080d100000f78001e009000bd
:100720000000e800100798001e009000e70f50003e
:10073000e0ff34000014200001002000a2040700a4
:100740003e009000e10f500002003a00dc42a80099
:1007500001003700dc62a8000080fa0000000600fb
:100760003600f800809fbe00829fbe00849fbe00be
:10077000869fbe003400f80000c0b300a0018800ce
:100780000000fa009ec9bf000004e0002d003a00fe
:10079000a0c9bf000004e0000c003a0030040700cc
:1007a000dc82a9004004200005ff0700f0062000bd
:1007b00003ff0700e006200001ff070050062000ad
:1007c000fffe070097e0a9007e003700a0c9bf0028
:1007d000e14f50000c003a0043040700dc82a900fe
:1007e00040042000f6fe0700f0062000f4fe07009b
:1007f000e0062000f2fe070050062000f0fe070091
:1008000097e0a9006f003700a0c9bf00e24f500079
:100810006c003a0050040700dc82a900400420006c
:10082000e7fe0700f0062000e5fe0700e0062000d6
:10083000e3fe070050062000e1fe070097e0a90054
:10084000600037009ec9bf00e14f50005d003a00d4
:10085000a0c9bf000004e00026003a00404d80001f
:10086000514d8000580407000aa3a8000ac3bf0026
:100870000044b2000004e000fcff3a00624d80003a
:10088000734d8000001980004200de008040780037
:10089000708020000000410001487800604d800019
:1008a000714d800061004000e0804800604d88008c
:1008b000714d8800624d8000734d800010198000da
:1008c0004200de008040780070802000000041007f
:1008d00001487800604d8000714d8000610040004b
:1008e000e0804800604d8800714d880097e0a900c5
:1008f0001a003700a0c9bf00e14f500017003a00ae
:10090000404d8000514d80002f0407000aa3a8002d
:100910000ac3bf000044b2000004e000fcff3a003c
:10092000624d8000734d8000001980004200de009f
:10093000804078007080200000004100014878006d
:10094000604d8000714d800061004000e0804800f3
:10095000604d8800714d880097e0a900a0c9bf00d4
:10096000e24f500017003a00404d8000514d80008a
:10097000150407000aa3a8000ac3bf000044b20080
:100980000004e000fcff3a00624d8000734d8000df
:10099000101980004200de00804078007080200046
:1009a0000000410001487800604d8000714d8000da
:1009b00061004000e0804800604d8800714d880073
:1009c00097e0a9000080fa003400f9004f03be0050
:1009d0004f02be004f01be004f00be003600f900be
:1009e000004006000000fa0000c8200001002000be
:1009f000f503070052fe070000c820000100200098
:100a0000f1030700dca2a9001000200000168800f6
:100a10000000eb00c016880095fe0700b9fe070035
:100a2000c6fe0700dafe0700dc82a80010042000e2
:100a300063fe0700a006200061fe070030052000cd
:100a40005ffe0700300620005dfe0700f006200074
:100a50005bfe07000007200059fe0700500620003b
:100a600057fe0700d000200055fe0700a000200020
:100a700053fe070000402d0001032000d2030700b1
:100a8000dc82a900000037005bfe070004e8b70025
:100a90009fc9bf000004e000fbff3a004180200036
:100aa0009140780090c4b30080cf500023003a00fa
:100ab0001004200042fe0700a006200040fe0700b0
:100ac000000220003efe0700300520003cfe07002b
:100ad000300620003afe0700f006200038fe07002e
:100ae0000007200036fe07005006200034fe0700f5
:100af0000002200032fe07002005200030fe070023
:100b0000500620002efe0700100620002cfe0700d5
:100b1000400620002afe07009007200028fe07005c
:100b20000002200026fe0700d000200024fe07005f
:100b3000a000200022fe0700d3ff370041802000e4
:100b40009140780010c4b30080cf500003003a00f9
:100b5000100420001afe07007d01370041802000ac
:100b60009140780020c4b30080cf500003003a00c9
:100b70002004200012fe0700c3ff37004180200040
:100b80009140780020c5b30080cf500004003a00a7
:100b9000200520000afe070070010700baff370099
:100ba000418020009140780040c4b30080cf5000c5
:100bb0008d003a0010fe070005e8b70005c8bf0029
:100bc000e14f500022003a006000b800604d8800fc
:100bd000714d880016003700604d8000714d800017
:100be0007280200002004000104078000080fb006e
:100bf000f3fd0700604d8000714d800061004000f2
:100c0000e0804800604d8800714d880000c82000d9
:100c1000010020006c030700604d8000714d8000d2
:100c200061004000e0804800604d8800714d880000
:100c3000624d8000734d8000f018200001002000fc
:100c4000800f5100818f5900e3ff36008eff37007f
:100c500005c8bf00e24f500024003a006000b80011
:100c6000604d8800714d880018003700604d80008d
:100c7000714d800061004000e080480072802000db
:100c800002004000104078000080fb00ccfd07000f
:100c9000604d8000714d800061004000e0804800a0
:100ca000604d8800714d880000c8200001002000c0
:100cb00045030700604d8000714d800061004000d9
:100cc000e0804800604d8800714d8800624d8000d2
:100cd000734d8000f018200001002000800f5100ab
:100ce000818f5900e1ff360067ff370005c8bf005c
:100cf000e34f50001c003a006000b800604d8800cf
:100d0000714d880010003700604d8000714d8000eb
:100d10007280200002004000104078000080fb003c
:100d2000a7fd070000c820000100200026030700df
:100d3000604d8000714d800061004000e0804800ff
:100d4000604d8800714d8800624d8000734d8000b9
:100d5000700c200001002000800f5100818f59008d
:100d6000e9ff360048ff370005c8bf00e44f5000d8
:100d700045ff3a00800c200001002000604d8800f3
:100d8000714d880010003700604d8000714d80006b
:100d90007280200002004000104078000080fb00bc
:100da00087fd070000c8200001002000060307009f
:100db000604d8000714d800061004000e08048007f
:100dc000604d8800714d8800624d8000734d800039
:100dd000f018200001002000800f5100818f590081
:100de000e9ff360028ff370041802000914078005d
:100df00030c5b30080cf500009003a003005200014
:100e00006ffd07007cfd070005e8b70005c8bf00bf
:100e1000a1e9b700a1c9bf00c60107001aff37004a
:100e20004180200091407800e0c4b30080cf5000a2
:100e300003003a00e004200061fd070012ff3700c4
:100e4000418020009140780030c4b30080cf500032
:100e500002003a00e50007000bff37004180200048
:100e600091407800c0c4b30080cf50001f003a000a
:100e7000c004200052fd07005ffd070005e8b70031
:100e80005dfd070006e8b70005c8bf000080fb0055
:100e90000000400000004000000040000000400052
:100ea0000000400000004000000040000000400042
:100eb0008000780006c8bf000080fb000080400072
:100ec00080007800f03f200080806000f03f20002c
:100ed000008160005126800000c02f00008060006b
:100ee0000200700050268800e7fe37004180200095
:100ef0009140780040c5b30080cf500007003a0011
:100f0000400520002efd07003bfd070005e8b70067
:100f100005c8bf009de9b700dbfe37004180200017
:100f20009140780000c5b30080cf50000f003a0018
:100f30000005200022fd07002ffd070005e8b7008f
:100f400005c8bf0061406000614060000041400092
:100f5000814c200091407800d0cfb30000c06000e9
:100f600002407000c8e4b700c7fe3700418020008f
:100f70009140780070c4b30080cf50000f003a0059
:100f8000700420000efd07001bfd070005e8b700f8
:100f900019fd070006e8b70005c8bf000080fb0088
:100fa000110020008ffd070006c8bf000080fb0075
:100fb000210020008bfd0700b3fe37004180200098
:100fc00091407800f0c4b30080cf500016003a0082
:100fd000f0042000fafc070007fd070005e8b70051
:100fe00005fd070006e8b70005c8bf000080fb004c
:100ff00000004000000040000000400000004000f1
:1010000000004000000040000000400000004000e0
:101010008000780006c8bf000080fb000080400010
:10102000000c880098fe3700418020009140780035
:10103000f0c6b30080cf500016003a00f006200042
:10104000dffc0700ecfc070005e8b700eafc07003e
:1010500006e8b70005c8bf000080fb0000004000a4
:101060000000400000004000000040000000400080
:1010700000004000000040000000400080007800b8
:1010800006c8bf000080fb0000804000300c8800d4
:101090007dfe3700418020009140780060c4b3009d
:1010a00080cf500007003a0060042000c4fc070015
:1010b000d1fc070005e8b70005c8bf00a0e9b700ec
:1010c00071fe3700418020009140780040c6b30097
:1010d00080cf500003003a0040062000b8fc070013
:1010e00069fe3700418020009140780040c7b3007e
:1010f00080cf500014003a0040072000b0fc0700e9
:10110000dcc2bf000080fb004400de0061406000e4
:1011100000c0ea00614060006140600000404000a3
:10112000004040000040400000414000c12d200030
:1011300091407800f0ceb30000c060000240700023
:10114000dce2b70050fe3700500420009cfc070092
:101150000000eb000080fa00000006000400fa0026
:101160000ba3a80000000000000000000000000029
:101170000bc3bf000044b2000004e000fcff3a00d3
:1011800020198000204798002119800000f02f00ce
:10119000008060004800de00304798003019800071
:1011a000004f78003119800000f02f0000806000af
:1011b0004800de00104798003e4090000080fb0091
:1011c0007ffc07002e4090000080fb007cfc0700a5
:1011d0001e4090000080fb0079fc07001e80fb0091
:1011e00077fc07000080fa00000006000000fa000b
:1011f000889fbe00dc82a8009dc9bf000004e000fb
:101200002a003a00a0c9bf000004e0000b003a0029
:1012100093010700dc82a9004004200068fc07005d
:10122000f006200066fc0700e006200064fc0700d2
:101230005006200062fc0700bb003700a0c9bf00b9
:10124000e14f50000b003a00a7010700dc82a90023
:10125000400420005afc0700f006200058fc07005c
:10126000e006200056fc07005006200054fc070052
:10127000ad003700a0c9bf00e24f5000aa003a00fd
:10128000b5010700dc82a900400420004cfc0700e7
:10129000f00620004afc0700e006200048fc07009a
:1012a0005006200046fc07009f0037009dc9bf0084
:1012b000e14f50004c003a00c8c4bf00f043b200f8
:1012c000c8e4b700c9e4a8009ec9bf000004e0005c
:1012d00003003a0087e0a90097e0a80092003700d9
:1012e0009ec9bf00e14f50008f003a006000b80077
:1012f000604d8800714d88002a003700a0c9bf00ea
:101300000004e00014003a00604d8000714d800040
:101310008103d1000083d300224d8000334d800033
:101320000234b80003b0b90009027800000242009c
:101330000790b9000002420084047800a200200057
:10134000030020000800be00edfb0700404d8800b0
:10135000514d880011003700264d8000374d800028
:10136000624d8000734d80000234b80003b0b900b4
:1013700009027800000242000790b9000002420012
:1013800084047800a2002000030020000800be00b2
:10139000dbfb0700404d8800514d880087e0a90025
:1013a00097e0a800624d8000734d8000f018200087
:1013b00001002000800f5100818f5900cfff3600bf
:1013c000dc82a90040042000fdfb0700f00620009d
:1013d000fbfb0700e0062000f9fb07005006200099
:1013e000f7fb0700500037009dc9bf00e24f5000d7
:1013f0004d003a00c8c4bf00f043b20001c4b300be
:1014000001407000c8e4b700c9e4a8009ec9bf004d
:101410000004e00003003a0087e0a90097e0a8007c
:10142000410037009ec9bf00e14f50003e003a0026
:101430006000b800604d8800714d88002a003700b8
:10144000a0c9bf000004e00014003a00604d800015
:10145000714d80008103d1000083d300224d8000b4
:10146000334d80000234b80003b0b900090278009f
:10147000000242000790b900000242008404780094
:10148000a2002000030020000800be009cfb070013
:10149000404d8800514d880011003700264d8000d6
:1014a000374d8000624d8000734d80000234b800db
:1014b00003b0b90009027800000242000790b900a9
:1014c0000002420084047800a200200003002000f3
:1014d0000800be008afb0700404d8800514d88007f
:1014e00087e0a90097e0a800624d8000734d80005e
:1014f000f018200001002000800f5100818f59005a
:10150000cfff3600dc82a90040042000acfb0700be
:10151000f0062000aafb0700e0062000a8fb070059
:1015200050062000a6fb07004f04be000080fa0012
:10153000000006000200fa00004f780010c0b3005f
:101540009e4f100007003a00b0002000010020006c
:10155000904d8800a14d88000040eb009ee9b70047
:10156000bd00370020c0b3009e4f100007003a00b6
:10157000b006200001002000904d8800a14d880099
:101580000040eb009ee9b700b300370030c0b30065
:101590009e4f100007003a00b0102000010020000c
:1015a000904d8800a14d88000040eb009ee9b700f7
:1015b000a900370040c0b3009e4f100007003a005a
:1015c000b024200001002000904d8800a14d88002b
:1015d0000040eb009ee9b7009f00370050c0b30009
:1015e0009e4f100007003a00b0602000010020006c
:1015f000904d8800a14d88000040eb009ee9b700a7
:101600009500370060c0b3009e4f100007003a00fd
:10161000b0c4200001002000904d8800a14d88003a
:101620000040eb009ee9b7008b00370070c0b300ac
:101630009e4f100007003a00b08c210001002000ee
:10164000904d8800a14d88000040eb009ee9b70056
:101650008100370080c0b3009e4f100007003a00a1
:10166000b0e4230001002000904d8800a14d8800c7
:101670000040eb009ee9b7007700370090c0b30050
:101680009e4f100007003a00b0cc27000100200058
:10169000904d8800a14d88000040eb009ee9b70006
:1016a0006d003700a0c0b3009e4f100007003a0045
:1016b000b09c2f0001002000904d8800a14d8800b3
:1016c0000040eb009ee9b70063003700b0c0b300f4
:1016d0009e4f100007003a00b00c270021002000a8
:1016e000904d8800a14d88000040eb009ee9b700b6
:1016f00059003700c0c0b3009e4f100007003a00e9
:10170000b01c2e0041002000904d8800a14d8800a3
:101710000040eb009ee9b7004f003700d0c0b30097
:101720009e4f100007003a00b03c2c0091002000b2
:10173000904d8800a14d88000040eb009ee9b70065
:1017400045003700e0c0b3009e4f100007003a008c
:10175000b09c260081012000904d8800a14d88009a
:101760000040eb009ee9b7003b003700f0c0b3003b
:101770009e4f100007003a00b03c2d0001032000ee
:10178000904d8800a14d88000040eb009ee9b70015
:101790003100370000c1b3009e4f100007003a002f
:1017a0000014200001002000204d8800314d8800e9
:1017b00010c0b3009ee9b7002700370010c1b30086
:1017c0009e4f100007003a00000a20000100200090
:1017d000204d8800314d880010c0b3009ee9b7004d
:1017e0001d00370020c1b3009e4f100007003a00d3
:1017f0000004200001002000204d8800314d8800a9
:1018000010c0b3009ee9b7001300370030c1b30029
:101810009e4f100007003a00000220000100200047
:10182000204d8800314d880010c0b3009ee9b700fc
:101830000900370040c1b3009e4f100006003a0077
:101840000001200001002000204d8800314d88005b
:1018500010c0b3009ee9b7000080fa000000060047
:101860000200fa000000eb00000f78000aa3a800b5
:10187000180037000ac3bf000044b2000004e000b3
:10188000fcff3a001e017800001980004200de00d3
:1018900080407800708020000000410001487800fe
:1018a0001e0fe8001e017800101980004200de00c3
:1018b00080407800708020000000410001487800de
:1018c0001e0fe800904d8000a14d80003e000700f3
:1018d0000aa3a800f01820009e0f1000e5ff3400b6
:1018e0000080fa00000006000200fa000000eb0091
:1018f000000f78000aa3a800120037000ac3bf0037
:101900000044b2000004e000fcff3a001e01780031
:10191000001980004200de008040780070802000c6
:1019200000004100014878001e0fe800904d800043
:10193000a14d800066004000e080480022000700c2
:101940000aa3a800f01820009e0f1000ebff34003f
:101950000080fa00000006000200fa000000eb0020
:10196000000f78000aa3a800120037000ac3bf00c6
:101970000044b2000004e000fcff3a001e017800c1
:10198000101980004200de00804078007080200046
:1019900000004100014878001e0fe800904d8000d3
:1019a000a14d800066004000e0804800060007006e
:1019b0000aa3a800f01820009e0f1000ebff3400cf
:1019c0000080fa0000000600f03fb1000180b10085
:1019d00003003500f803090000000000faff37009b
:1019e000303fb00002003500008009000000000018
:0419f00000000600ed
:020000040000fa
:0200000401f009
:04000800ffff0000f6
:020000040000fa
:0200000401f009
:04000c00ffff0000f2
:020000040000fa
:0200000401f009
:04001000faff0000f3
:020000040000fa
:0200000401f009
:040014007fff00006a
:020000040000fa
:0200000401f009
:04001800f8ff0000ed
:020000040000fa
:100008000c0d00000c0d00000c0d00000c0d000084
:100018000c0d00000c0d00000c0d00000c0d000074
:100028000c0d00000c0d00000c0d00000c0d000064
:100038000c0d00000c0d00000c0d00000c0d000054
:100048000c0d00000e0200000c0d00000c0d00004d
:100058000c0d00000c0d00000c0d00000c0d000034
:100068000c0d00000c0d00000c0d00000c0d000024
:100078000c0d00000c0d00000c0d00000c0d000014
:100088000c0d00000c0d00000c0d00000c0d000004
:100098000c0d00000c0d00000c0d0000b00300005a
:1000a8000c0d00000c0d00000c0d00000c0d0000e4
:1000b8000c0d00000c0d00000c0d00000c0d0000d4
:1000c8000c0d00000c0d00000c0d00000c0d0000c4
:1000d8000c0d00000c0d00000c0d00000c0d0000b4
:1000e8000c0d00000c0d00000c0d00000c0d0000a4
:0800f8000c0d00000c0d0000ce
:020000040000fa
:100108000c0d00000c0d00000c0d00000c0d000083
:100118000c0d00000c0d00000c0d00000c0d000073
:100128000c0d00000c0d00000c0d00000c0d000063
:100138000c0d00000c0d00000c0d00000c0d000053
:100148000c0d00000e0200000c0d00000c0d00004c
:100158000c0d00000c0d00000c0d00000c0d000033
:100168000c0d00000c0d00000c0d00000c0d000023
:100178000c0d00000c0d00000c0d00000c0d000013
:100188000c0d00000c0d00000c0d00000c0d000003
:100198000c0d00000c0d00000c0d0000b003000059
:1001a8000c0d00000c0d00000c0d00000c0d0000e3
:1001b8000c0d00000c0d00000c0d00000c0d0000d3
:1001c8000c0d00000c0d00000c0d00000c0d0000c3
:1001d8000c0d00000c0d00000c0d00000c0d0000b3
:1001e8000c0d00000c0d00000c0d00000c0d0000a3
:0801f8000c0d00000c0d0000cd
:020000040000fa
:1019f400b0090000060000000200000000000a0018
:101a04000000000000080000b00100000000000019
:041a140000000000ce
:020000040000fa
:041a18000000fe00cc
:00000001FF
